S00F00005472697669756D2E7372656325
S11300000C942A000C9447000C9447000C9447006D
S11300100C9447000C9447000C9447000C94470040
S11300200C9447000C9447000C9447000C94470030
S11300300C9447000C9447000C9447000C94470020
S11300400C9447000C9447000C9447000C94470010
S11300500C94470011241FBECFE5D8E0DEBFCDBF0E
S113006010E0A0E6B0E0E6ECF3E002C005900D92EB
S1130070A437B107D9F720E0A4E7B0E001C01D928E
S1130080A939B207E1F70E9449000C94E1010C94EC
S1130090000060E875E280E090E00E94AF0180E635
S11300A090E00E9413010E943A010E94B7010E944D
S11300B045010E94BB01F9CF0F931F93CF93DF93A8
S11300C0DC01CB010197181619068CF4FC01EA0F28
S11300D0FB1FAD0131979181990F2081222314F0E8
S11300E0918302C091609183E417F50799F78C918D
S11300F0880F8C936C30710599F41B968C911B9727
S113010085FB882780F9C82F80E0D82F18962C917A
S1130110227030E081E02C173D0779F580E02DC096
S11301206B30710589F41A968C911A9784FB002719
S113013000F910E018962C91207130E081E020172E
S11301403107D9F480E019C06E307105A9F41D9609
S11301508C911D97082E000C990B492F441F44279E
S1130160441F50E018962C91227030E081E024174F
S1130170350719F480E001C080E0DF91CF911F9131
S11301800F910895662329F0FC01208121602083CA
S11301900895FC0120812E7F20830895EF92FF9221
S11301A00F931F93CF93DF9310918A0012951170D0
S11301B0D0919700D5FBDD27D0F9C0917E00C6FB16
S11301C0CC27C0F96CE070E082E890E00E945C000B
S11301D0E82E6BE070E08EE890E00E945C00082F4F
S11301E06EE070E084E790E00E945C00F82E612FDE
S11301F0682782E890E00E94C2006D2F6E258EE889
S113020090E00E94C2006C2F602784E790E00E9477
S1130210C2008E2D80278F25DF91CF911F910F91E2
S1130220FF90EF900895DC01E2E8F0E04CE850E044
S11302302D912193E417F507D9F7DC011A96EEE81E
S1130240F0E028E930E08D918193E217F307D9F7C4
S1130250E4E7F0E082E890E011928E179F07E1F75F
S1130260E2E8F0E0128613861092980087E080930B
S113027081000895CF93DF93C0E8D4E00E94CE00BC
S11302802197E1F7DF91CF910895EF92FF920F93B9
S11302901F93CF93DF93082FC0E0D0E010E0689461
S11302A0EE24E7F8F12C0E94CE00882341F0C70128
S11302B00C2E02C0959587950A94E2F7182B219687
S11302C0C830D10581F7812F8027DF91CF911F910D
S11302D00F91FF90EF9008950F931F938B019C0152
S11302E0DC01CB0180569940A109B109813A984BB0
S11302F0A140B10568F580E090E0DC01801B910B22
S1130300A20BB30B880F991FAA1FBB1F880F991F3D
S1130310AA1FBB1F880F991FAA1FBB1FBC01CD01B9
S11303207E5E85489F4F000F111F221F331F000F51
S1130330111F221F331FA9019801220F331F441FCD
S1130340551F220F331F441F551F0E94BF0102C0B7
S113035023E330E029B930BD1F910F91089528E1BE
S11303602AB926E820BD1BB80E946C0108955F9B42
S1130370FECF8CB108955D9BFECF8CB90895A1E2A8
S11303801A2EAA1BBB1BFD010DC0AA1FBB1FEE1F0B
S1130390FF1FA217B307E407F50720F0A21BB30B56
S11303A0E40BF50B661F771F881F991F1A9469F7D2
S11303B060957095809590959B01AC01BD01CF012E
S10903C00895F894FFCF3C
S11303C65765206469642069742E203A2920416E99
S10703D664207765BF
S9030000FC
